:020000040800F2
:10000000A00F0020ED010008752E0008352A000819
:10001000712E00081D030008AD3700080000000025
:10002000000000000000000000000000E52E0008B5
:100030000904000800000000792E0008E72E0008DF
:10004000070200080702000807020008070200086C
:10005000070200080702000807020008070200085C
:100060000702000807020008070200082103000831
:10007000310300084103000851030008070200088B
:10008000070200080000000007020008070200083D
:10009000070200080702000807020008070200081C
:1000A000070200080702000807020008070200080C
:1000B00007020008070200080702000807020008FC
:1000C00007020008070200080702000807020008EC
:1000D000070200088D3700089D3700080702000856
:1000E00007020008070200080702000807020008CC
:1000F00007020008070200080702000800000000CD
:1001000000000000070200080000000007020008CD
:1001100007020008000000000702000807020008AC
:10012000070200080702000807020008070200088B
:10013000070200080000000000000000070200089D
:10014000070200080702000800000000000000008D
:10015000000000000000000000000000000000009F
:10016000000000000000000000000000070200087E
:10017000070200080000000000000000000000006E
:10018000000000000702000800000000000000005E
:10019000000000000000000000000000000000005F
:1001A000000000000000000007020008070200082D
:1001B000070200080702000807020008000000000C
:1001C000000000000702000800000000000000001E
:1001D0000702000807020008DFF80CD000F08CF8D6
:1001E00000480047ED380008A00F0020064880476F
:1001F00006480047FEE7FEE7FEE7FEE7FEE7FEE70C
:10020000FEE7FEE7FEE7FEE75D2F0008D9010008E4
:100210002DE9F05F0546002092469B46884606463B
:10022000814640241BE0284641464746224600F0CE
:1002300053F853465A46C01A914110D311461846F6
:10024000224600F03AF82D1A67EB01084F46224685
:100250000120002100F031F817EB00094E41201E6B
:10026000A4F10104DFDC484631462A464346BDE896
:10027000F09F40EA01039B0703D009E008C9121F61
:1002800008C0042AFAD203E011F8013B00F8013B50
:10029000521EF9D27047D2B201E000F8012B491E7C
:1002A000FBD270470022F6E710B513460A46044613
:1002B0001946FFF7F0FF204610BD202A04DB203A44
:1002C00000FA02F1002070479140C2F1200320FAA9
:1002D00003F3194390407047202A04DB203A21FAA7
:1002E00002F00021704721FA02F3D040C2F120024F
:1002F0009140084319467047064C074D06E0E068F8
:1003000040F0010394E8070098471034AC42F6D35C
:10031000FFF766FF703C0008903C000800BFFEE756
:1003200010B5024800F097FD10BD0000E00A002063
:1003300010B5024800F08FFD10BD0000400B0020FA
:1003400010B5024800F087FD10BD0000800A0020B3
:1003500010B5024800F07FFD10BD0000E808002045
:1003600030B50E4D0468AC4201D20D4901E00C4994
:1003700020310B460478083C1425B4FBF5F2446C9C
:10038000A40803EB84048464054C8034C46402F044
:100390001F050124AC40046530BD00000804024084
:1003A0000008024001794A1E064B03EB82024265B7
:1003B000044A403282654A1E02F01F0301229A401D
:1003C000C26570470009024030B5D0E913546C6033
:1003D000446D14B1D0E916546C6090F8444004F0B8
:1003E0001F050124AC40056C6C6004686360846880
:1003F000102C04D10468A2600468E16003E0046882
:10040000A1600468E26030BD704772B600BFFEE7CD
:100410002DE9F0439BB004460E464FF000083068CB
:1004200000B100BF00BF94F85800012803D102209A
:100430001BB0BDE8F083012084F8580000BF002005
:10044000179018902068B0F1A04F02D13148009069
:1004500001E000200090009850B9E06D40F02000CD
:10046000E06500BF002084F8580000BF0120DFE7EE
:10047000009802F003FB0746206802F0FFFAD8BBA1
:10048000D7BB254D306800B394F83800716841EA55
:100490004030A96821F460410843A8604FF0A040B3
:1004A00002F0DDFA81461B4802F0D9FA49EA000958
:1004B000B9F1000F27D1B16830680843A96840F648
:1004C0001F7291430843A8601DE0A86820F46040B3
:1004D000A8604FF0A04002F0C2FA81460D4802F039
:1004E000BEFA49EA0009B9F1000F0CD1A86840F63C
:1004F0001F718843A86006E0FFE7E06D40F0200030
:10050000E0654FF0010800BF002084F8580000BFEC
:1005100040468DE700010050000300502DE9F84FE0
:1005200005460C464FF0000A00200090FE49E068A6
:10053000884200D000E000BF00BF95F858000128B5
:1005400002D10220BDE8F88F012085F8580000BFD5
:10055000286802F08EFA00287DD12968D4E90020AD
:1005600001F1300CC0F3012B0CEB8B03D3F800C06E
:1005700000F01F0E4FF01F0B0BFA0EFB2CEA0B0CBA
:1005800000F01F0BC2F3846E0EFA0BFE4CEA0E0C49
:10059000C3F800C000BF286802F06BFA81462868E3
:1005A00002F053FA8046B9F1000F64D1B8F1000FA0
:1005B000FBD1A068B0F1004F0AD121680022286861
:1005C00002F061FA4FF00041286802F081FA08E079
:1005D000A2682168286802F056FA0021286802F013
:1005E00077FA60692968C968C1F3C101490000FA56
:1005F00001F7206904283FD028682268216900F1AA
:10060000600C0CEB8103D3F800C0DFF820B30CEAD8
:100610000B0C02F0F84B4BF0004B4BEA070B4CEA8B
:100620000B0CC3F800C000BF2868A269216900F163
:10063000600C0CEB8103D3F800C02CF0807C4CEAFA
:10064000020CC3F800C000BF2868227F2169012A7C
:1006500002D1520601E0C6E10022134600F1600C0F
:100660000CEB8102D2F800C02CF0007C4CEA030CA9
:10067000C2F800C000BFA7E00021286802F0DCF942
:10068000C0F3120030B90021286802F0D5F9C0F398
:10069000846007E00021286802F0CEF990FAA0F00B
:1006A000B0FA80F02168C1F3120119B92168C1F3D1
:1006B000846104E0216891FAA1F1B1FA81F18842E4
:1006C00004D100221146286802F0F7F901212868B8
:1006D00002F0B2F9C0F3120030B90121286802F02B
:1006E000ABF9C0F3846007E00121286802F0A4F9A7
:1006F00090FAA0F0B0FA80F02168C1F3120119B9A4
:100700002168C1F3846104E0216891FAA1F1B1FA92
:1007100081F1884204D100220121286802F0CDF93C
:100720000221286802F088F9C0F3120030B90221D2
:10073000286802F081F9C0F3846007E0022128688C
:1007400002F07AF990FAA0F0B0FA80F02168C1F3D3
:10075000120119B92168C1F3846104E0216891FA9A
:10076000A1F1B1FA81F1884204D100220221286866
:1007700002F0A3F90321286802F05EF9C0F3120029
:1007800030B90321286802F057F9C0F3846007E00C
:100790000321286802F050F990FAA0F0B0FA80F036
:1007A0002168C1F3120119B92168C1F3846104E021
:1007B000216891FAA1F1B1FA81F1884204D10022B5
:1007C0000321286802F079F9286802F043F900282B
:1007D00072D12868E2682168D0F8B030C1F3120CF9
:1007E00023EA0C0302F0180BDFF844C12CFA0BFCCF
:1007F0000CEA010C43EA0C03C0F8B03000BF4A49D0
:10080000E068884258D12368C3F312031BB92368F8
:10081000C3F3846304E0236893FAA3F3B3FA83F386
:100820005B1C03F01F03092B3ED82368C3F312039C
:100830001BB92368C3F3846304E0236893FAA3F32A
:10084000B3FA83F35B1C03F01F034FF0010C0CFAA7
:1008500003FC2368C3F312031BB92368C3F3846347
:1008600004E0236893FAA3F3B3FA83F35B1C03F069
:100870001F034CEA836C2368C3F312031BB923687C
:10088000C3F3846304E0236893FAA3F3B3FA83F316
:100890005B1C03F01F0303EB43034FF0000B4BEA19
:1008A00003534CEA030347E02368C3F3120323B95D
:1008B0002368C3F3846305E043E0236893FAA3F35A
:1008C000B3FA83F35B1C03F01F034FF0010C0CFA27
:1008D00003FC2368C3F312031BB92368C3F38463C7
:1008E00004E0236893FAA3F3B3FA83F35B1C03F0E9
:1008F0001F034CEA836C2368C3F312031BB92368FC
:10090000C3F3846304E0236893FAA3F3B3FA83F395
:100910005B1C03F01F030A3B03EB43034FF0007B18
:100920004BEA035306E0000000007F4000F0FF03A5
:10093000FFFF07004CEA03031946A268286802F08B
:10094000A2F82F492068084050B300BF2D488068A6
:1009500000F0E07600BF2C492068884203D02B4984
:10096000206888421DD106F40000D0B92868B0F193
:10097000A04F3ED146F40001224802F098F82448E6
:1009800000682449B0FBF1F0401C00EB40008000FF
:10099000009002E00098401E009000980028F9D1D5
:1009A00027E01D49206888420CD106F0807048B9C4
:1009B0001A49286888421CD046F08071114802F01C
:1009C00076F816E016492068884212D106F48000B5
:1009D00078B91249286888420BD046F4800109484A
:1009E00002F065F805E0E86D40F02000E8654FF0A2
:1009F000010A00BF002085F8580000BF5046A1E55D
:100A00000000088000030050000021C31000C090C7
:100A100010000020400D0300000052C700010050EC
:100A2000000084CB2DE9F84304464FF00008002075
:100A3000009014B90120BDE8F883606920B194F8F2
:100A40002400012800D100BFE06D30B9204600F03D
:100A500017F90020206684F8580020688168C1F3E7
:100A6000407131B1206881687E4A1140816000BFC9
:100A700000BF206801F0F8FFB0B9206881687A4AA9
:100A8000114041F08051816000BF7848006878498A
:100A9000B0FBF1F0401C4000009002E00098401EC6
:100AA000009000980028F9D1206801F0DDFF48B9D6
:100AB000E06D40F01000E065206E40F0010020661F
:100AC0004FF00108206801F0D4FF0646E06D00F009
:100AD0001000002877D1002EFCD1E06D20F480704A
:100AE00040F00200E065206801F0B4FFB0B94FF0BB
:100AF000A04001F0AFFF81465E4801F0ABFF49EA3C
:100B00000009B9F1000F09D160685B49896821F4D7
:100B10007C110143584A916000BF00BF607FE16BC8
:100B200041EA4030E1680843A168084394F8241082
:100B300040EA014594F82400012803D1208D401E8D
:100B400045EA4045E06A28B1A08D00F47870216B39
:100B5000084305432068C068484908402843216885
:100B6000C8602068006920F04060616B084321681C
:100B70000861206801F069FF0746002E50D1EFBBE5
:100B8000207F002141EA803194F8380041EA400595
:100B90002068C06844F20201884328432168C86085
:100BA000206988B12068006940F4803021680861BC
:100BB0002068D0F8C0006FF30D0021690843216858
:100BC000C1F8C0000EE045E02068006920F48030E4
:100BD000216808612068D0F8C0006FF30D0021681B
:100BE000C1F8C00094F84000012813D1606C40F0B7
:100BF0000101A06C0843E16C084300E010E0216DA6
:100C000008432168096940F2FC7291430843216856
:100C1000086105E02068006920F001002168086192
:100C20006069012809D12068006B20F00F00216A5B
:100C3000491E08432168086305E02068006B20F026
:100C40000F0021680863E06D20F0020040F0010011
:100C5000E06505E0E06D40F01000E0654FF0010850
:100C60004046E8E6C0FFFF5FC0FFFF7F10000020A6
:100C7000400D030000010050000300500740F0FF4A
:100C800010B598B00446142113A8FFF70BFB4421BC
:100C900002A8FFF707FB2068B0F1A04F4BD14FF43B
:100CA000004002908003119002A800F0B5FC08B14A
:100CB000FFF7ABFB00BF2148C06C40F400501F4958
:100CC000C8640846C06C00F40050019000BF00BF2B
:100CD00000BF0846C06C40F00200C8640846C06C03
:100CE00000F00200019000BF00BFC8141390032061
:100CF00014900020159013A9114800F0F5F911483F
:100D0000114908600520486000210F488160C160DA
:100D1000802101610021416181612021C1610021A7
:100D2000016200F017F908B1FFF76FFB00BF06483A
:100D30006065846200BF18B010BD00000010024062
:100D40000004004844000240E8080020014600205A
:100D500091F82520022A03D00422CA63012027E04B
:100D60000A68126822F00E020B681A608A6C126818
:100D700022F480728B6C1A600A68126822F00102F9
:100D80000B681A6091F8442002F01F0301229A4078
:100D90000B6C5A60D1E913325A604A6D42B14A6D08
:100DA000126822F480724B6D1A60D1E916325A60D3
:100DB000012281F8252000BF002281F8242000BFF5
:100DC000704770B50446002594F8250002280BD022
:100DD0000420E063012084F8250000BF002084F88F
:100DE000240000BF012534E02068006820F00E00D8
:100DF000216808602068006820F001002168086010
:100E0000A06C006820F48070A16C086094F8440025
:100E100000F01F0101208840216C4860D4E91310C4
:100E20004860606D40B1606D006820F48070616D55
:100E30000860D4E916104860012084F8250000BF3E
:100E4000002084F8240000BFA06B10B12046A16BE5
:100E50008847284670BD70B50446206C0568206838
:100E6000066894F8440000F01F01042088402840E0
:100E7000E0B106F00400C8B12068006800F020006E
:100E800028B92068006820F004002168086094F800
:100E9000440000F01F0104208840216C4860206B52
:100EA000002856D02046216B884752E094F8440031
:100EB00000F01F0102208840284018B306F002000D
:100EC00000B32068006800F0200040B92068006886
:100ED00020F00A0021680860012084F8250094F8B9
:100EE000440000F01F0102208840216C486000BFD0
:100EF000002084F8240000BFE06A50B32046E16A75
:100F0000884726E094F8440000F01F01082088403C
:100F10002840F0B106F00800D8B12068006820F041
:100F20000E002168086094F8440000F01F010120C1
:100F30008840216C48600120E06384F8250000BFF0
:100F4000002084F8240000BF606B10B12046616B64
:100F5000884770BD70B504460CB9012070BD2F499B
:100F6000206888420BD22E492068401A1421B0FB19
:100F7000F1F0800060642A48083820640AE02749BC
:100F80002068401A1421B0FBF1F08000606423480F
:100F900008382064022084F825002068056847F698
:100FA000F0708543D4E9020108432169084361696F
:100FB0000843A1690843E1690843216A08430543DE
:100FC000206805602046FFF7CBF9A068B0F5804F98
:100FD00001D1002060602079A16C0860D4E9131071
:100FE0004860606860B16068042809D82046FFF74F
:100FF000D9F90020616D0860D4E91610486003E05B
:1010000000206065A065E0650020E063012084F8B1
:101010002500002084F8240000BF9FE70804024058
:10102000080002402DE9F04104460D4616461F46D1
:101030004FF0000800BF94F82400012802D10220DC
:10104000BDE8F081012084F8240000BF94F8250059
:1010500001283FD1022084F825000020E0632068A9
:10106000006820F00100216808603B4632462946AE
:101070002046FFF7A9F9206B30B12068006840F0E6
:101080000E00216808600BE02068006820F0040072
:10109000216808602068006840F00A002168086044
:1010A000A06C006800F4803028B1A06C006840F4A7
:1010B0008070A16C0860606D28B1606D006840F4BC
:1010C0008070616D08602068006840F00100216850
:1010D000086006E000BF002084F8240000BF4FF045
:1010E00002084046ACE7000078B502460B460021F6
:1010F000CAE001268E401D6805EA0604002C73D064
:101100001D7905F00305012D04D01D7905F00305B7
:10111000022D13D190684E000325B540A8434E0020
:10112000DD68B54028439060506801258D40A84394
:101130001D79C5F300158D40284350601D7905F0D9
:101140000305032D09D0D0684E000325B540A84300
:101150004E009D68B5402843D0601D7905F0030519
:10116000022D13D1CE0802F1200555F826004D07B7
:10117000EE0E0F25B540A8434E07F60E1D69B5408B
:101180002843CE0802F1200545F8260010684E00DD
:101190000325B540A8431D7905F003054E00B54071
:1011A000284310605D6805F44035002D6BD000BF0A
:1011B000384D2D6E45F00105364E356635462D6E9F
:1011C00005F00105009500BF00BF4FEAB6358E0857
:1011D00055F826008D072E0F0F25B540A843B2F114
:1011E000904F02D100251AE04DE02B4DAA4201D1CB
:1011F000012514E0294DAA4201D102250FE0284D16
:10120000AA4201D103250AE0264DAA4201D10425B4
:1012100005E0254DAA4201D1052500E006258E07EF
:10122000360FB5402843214D8E0845F82600204D45
:101230002868A0435D6805F4801505B120431C4D66
:1012400028602D1D2868A0435D6805F4001505B1D0
:101250002043174D2D1D2860154D2D1F2868A043D4
:101260005D6805F4003505B12043114D2D1F286040
:101270002D1F2868A0435D6805F4803505B1204323
:101280000B4D083D2860491C1D68CD40002D7FF4A2
:1012900030AF78BD0010024000040048000800484C
:1012A000000C0048001000480014004808000140ED
:1012B000080401400AB1816100E0816270470000CA
:1012C00001480068704700000400002070B5044623
:1012D0000CB9012070BD4CF6CC402168086045F285
:1012E000555021680860D4E9001048602168A06862
:1012F0008860FFF7E5FF05460BE0FFF7E1FF401BC5
:10130000312806D92068C06800F0070008B1032022
:10131000E0E72068C06800F007000028EDD12068F1
:101320000169E068814203D02168E068086103E058
:101330004AF6AA20216808600020CBE701464AF659
:10134000AA200A6810600020704700000348006867
:1013500003490968084401490860704704000020F7
:101360000C00002010B50024032000F0ABF80F2083
:1013700000F008F808B1012401E000F02FF8204641
:1013800010BD000070B50446002511480068D8B1B2
:101390000F4800684FF47A71B1FBF0F00D4909680D
:1013A000B1FBF0F6304600F039FF58B9102C07D2E7
:1013B00000222146501E00F047F80748046004E070
:1013C000012502E0012500E00125284670BD00004E
:1013D0000C000020100000200800002008B500BF0D
:1013E0000E48006E40F001000C4908660846006E89
:1013F00000F00100009000BF00BF00BF0846806DF4
:1014000040F0805088650846806D00F08050009064
:1014100000BF00BF00F0F6F808BD00000010024059
:101420000146084600280DDB00BF00BF00F01F0387
:1014300001229A4043099B0003F1E023C3F80021F5
:1014400000BF00BF00BF70472DE9F05F80460D462A
:10145000164602F0ADF9074639462A46334601F0F2
:101460000700C0F1070ABAF1040F02D94FF0040ACD
:1014700001E0C0F1070AD14600F1040ABAF1070FF2
:1014800002D24FF0000A01E0A0F1030AD4464FF067
:10149000010A0AFA09FAAAF1010A0AEA020A0AFA90
:1014A0000CFA4FF0010B0BFA0CFBABF1010B0BEA42
:1014B000030B4AEA0B042146404602F081F9BDE8DD
:1014C000F09F000000BF00F00702064B19684FF6BE
:1014D000FF031940044B0B4343EA0221014B1960FF
:1014E00000BF70470CED00E00000FA0502468ABB21
:1014F0004148006800F4C060B0F5806F2BD13E48D1
:101500008030006820F480703B4BC3F880001846A0
:10151000006820F4C06040F400701860374800682C
:1015200032235843364BB0FBF3F0411C00E0491E18
:101530003148406900F48060B0F5806F01D1002926
:10154000F5D12D48406900F48060B0F5806F51D12D
:101550000320704708E028488030006820F480703D
:10156000254BC3F8800045E0B2F5007F3AD1224810
:10157000006800F4C060B0F5806F2AD11E4880304A
:10158000006840F480701C4BC3F880001846006867
:1015900020F4C06040F400701860184800683223DE
:1015A0005843174BB0FBF3F0411C00E0491E1248B2
:1015B000406900F48060B0F5806F01D10029F5D159
:1015C0000D48406900F48060B0F5806F12D10320AF
:1015D000BFE709488030006840F48070064BC3F8CC
:1015E000800007E00448006820F4C06040F4806098
:1015F000014B18600020ACE7007000401000002094
:1016000040420F000348806840F4804001498860F0
:1016100070470000007000402DE9F84304460027A1
:10162000B846206800F40020B0F5002F73D1B94609
:10163000D348806D00F0805078B900BFD048806DED
:1016400040F08050CE4988650846806D00F080509B
:10165000009000BF00BF4FF00109CA48006840F485
:101660008070C8490860FFF72BFE064606E0FFF7CA
:1016700027FE801B022801D9032705E0C148006826
:1016800000F480700028F2D000BF002F46D1BC4883
:101690009030006800F44075CDB1206CA84216D09F
:1016A000B7489030006820F44075B548D0F89000F5
:1016B00040F48030B249C1F890000846D0F890005C
:1016C00020F48030C1F890000846C0F8905005F032
:1016D0000100A0B1FFF7F4FD064608E0FFF7F0FDBA
:1016E000801B41F28831884201D9032706E0A448D3
:1016F0009030006800F002000028EFD000BF5FB912
:101700009F489030006820F44070216C08439C4949
:10171000C1F8900003E00CE0B84600E0B846B9F12B
:10172000010F05D19648806D20F08050944988655E
:1017300000BF207800F0010048B19148883000686F
:1017400020F00300616808438D49C1F888002078C3
:1017500000F00200022809D189488830006820F092
:101760000C00A16808438649C1F88800207800F081
:101770000400042809D182488830006820F0300035
:10178000E16808437E49C1F88800207800F008002D
:10179000082809D17A488830006820F0C000216903
:1017A00008437749C1F88800207800F020002028FD
:1017B00009D173488830006820F4406061690843AB
:1017C0006F49C1F88800207800F04000402809D116
:1017D0006B488830006820F44050A169084368498C
:1017E000C1F88800207800F08000802809D1644882
:1017F0008830006820F44040E16908436049C1F83E
:101800008800208800F48070B0F5807F09D15C48A2
:101810008830006820F44030216A08435849C1F8F4
:101820008800208800F40070B0F5007F09D154488A
:101830008830006820F44020616A08435049C1F8AC
:101840008800208800F48060B0F5806F13D14C4888
:101850008830006820F44010A16A08434849883164
:101860000860A06AB0F5801F05D14548C06840F403
:1018700080104349C860208800F40060B0F5006F14
:1018800013D13F488830006820F44000E16A0843E3
:101890003B4988310860E06AB0F5800F05D13848CF
:1018A000C06840F480103649C860208800F4805039
:1018B000B0F5805F13D132488830006820F0407066
:1018C000216B08432E4988310860206BB0F1807F7E
:1018D00005D12B48C06840F480102949C860208891
:1018E00000F40050B0F5005F13D12548883000683F
:1018F00020F04060616B0843214988310860606BCB
:10190000B0F1006F05D11E48C06840F480101C493A
:10191000C860208800F48040B0F5804F13D118488B
:101920008830006820F04060A16B0843144988317A
:101930000860A06BB0F1006F05D11148C06840F499
:1019400080100F49C860208800F40040B0F5004FB7
:1019500013D10B488830006820F04050E16B0843F9
:10196000074988310860E06BB0F1805F05D1044819
:10197000C06840F480300249C8604046BDE8F88342
:1019800000100240007000402DE9F04104460D4671
:101990004FF0000814B90120BDE8F0817D480068CF
:1019A00000F00F00A8420ED27A48006820F00F0025
:1019B0002843784908600846006800F00F00A842F4
:1019C00001D00120E8E7207800F00100002864D071
:1019D0006068032823D17048006800F0007008B9DF
:1019E0000120D9E701F04AFA06466C48864237D909
:1019F0006948806800F0F00030B1207800F0020003
:101A000002282DD1A06858BB6348806820F0F00000
:101A100040F08000604988604FF0800820E06068F6
:101A2000022806D15C48006800F4003040B901206B
:101A3000B2E75948006800F4806008B90120ABE7BC
:101A400000F0DEF806465548864209D952488068BB
:101A500020F0F00040F080004F4988604FF080088F
:101A60004D48806820F00300616808434A49886057
:101A7000FFF726FC074608E0FFF722FCC01B41F2F7
:101A80008831884201D9032086E74348806800F006
:101A90000C006168B0EB810FEED1207800F00200FD
:101AA000022820D1207800F00400042805D13A480B
:101AB000806840F4E06038498860207800F00800D1
:101AC000082807D13448806820F4605040F4E06072
:101AD000314988603048806820F0F000A1680843F0
:101AE0002D49886008E0B8F1800F05D12A48806848
:101AF00020F0F000284988602648006800F00F00B8
:101B0000A84219D92348006820F00F002843214932
:101B10000860FFF7D5FB074608E0FFF7D1FBC01BC5
:101B200041F28831884201D9032035E7194800681D
:101B300000F00F00A842F0D1207800F00400042843
:101B400007D11548806820F4E060E1680843124935
:101B50008860207800F00800082808D10E488068C6
:101B600020F46050216940EAC1000B49886000F010
:101B700047F809498968C1F30311094A515C01F02A
:101B80001F01C8400749086007480068FFF7FAFBD3
:101B900002E70000002002400010024000B4C4042C
:101BA000583C000810000020080000200148006890
:101BB000704700001000002000B5FFF7F7FF05494F
:101BC0008968C1F30221044A515C01F01F01C84039
:101BD00000BD000000100240683C000800B5FFF79F
:101BE000E5FF05498968C1F3C221044A515C01F04F
:101BF0001F01C84000BD000000100240683C000802
:101C000070B5224DAD6805F00C05042D01D12048BA
:101C10003AE01E4DAD6805F00C05082D01D11D48B8
:101C200032E01A4DAD6805F00C050C2D2BD1174D87
:101C3000ED6805F00304154DED68C5F303156A1C46
:101C4000022C0CD0032C09D1124DB5FBF2F50F4E2E
:101C5000F668C6F3062605FB06F10AE000BF0C4D48
:101C6000B5FBF2F5094EF668C6F3062605FB06F14C
:101C700000BF00BF054DED68C5F341656D1C6B00ED
:101C8000B1FBF3F000E0002070BD00000010024046
:101C90000024F40040787D012DE9F843044614B98E
:101CA0000120BDE8F883207800F00100002865D00D
:101CB000FC48806800F00C07FA48C06800F0030692
:101CC0000C2F01D1032E01D0082F0AD1F54800684E
:101CD00000F40030002851D0606800284ED1012067
:101CE000DFE700BF6068B0F5803F06D1ED480068CF
:101CF00040F48030EB4908601AE06068B0F5A02F2E
:101D00000BD1E848006840F48020E64908600846A6
:101D1000006840F4803008600AE0E248006820F47F
:101D20008030E04908600846006820F480200860A0
:101D300000BF606888B1FFF7C3FA054606E0FFF709
:101D4000BFFA401B642801D90320AAE7D5480068E0
:101D500000F400300028F2D010E0FFF7B1FA054699
:101D600006E0FFF7ADFA401B642801D9032098E78D
:101D7000CC48006800F400300028F2D1207800F050
:101D80000200022860D1C748806800F00C07C548EF
:101D9000C06800F003060C2F01D1022E01D0042FE1
:101DA00018D1C048006800F4806018B1E06808B934
:101DB000012076E7BB48406820F0FE40217C40EAE5
:101DC0000160B8494860B8480068FFF7DBFA18B30B
:101DD000012066E7E06800B3B248006840F4807014
:101DE000B0490860FFF76CFA054606E0FFF768FAAD
:101DF000401B022801D9032053E7AA48006800F4D9
:101E000080600028F2D0A748406820F0FE40217C86
:101E100040EA0160A349486016E0A248006820F447
:101E20008070A0490860FFF74BFA054606E0FFF70F
:101E300047FA401B022801D9032032E7994800687D
:101E400000F480600028F2D1207800F00800082813
:101E500036D16069D0B193489430006840F00100F9
:101E60009049C1F89400FFF72BFA054606E0FFF70A
:101E700027FA401B022801D9032012E78948943031
:101E8000006800F002000028F1D019E08548943085
:101E9000006820F001008349C1F89400FFF710FAB0
:101EA000054606E0FFF70CFA401B022801D9032083
:101EB000F7E67C489430006800F002000028F1D179
:101EC000207800F00400042872D14FF00008754813
:101ED000806D012121EA107078B100BF7148806DDA
:101EE00040F080506F4988650846806D00F0805052
:101EF000009000BF00BF4FF001086C48006800F47C
:101F00008070B0B96948006840F480706749086023
:101F1000FFF7D6F9054606E0FFF7D2F9401B022885
:101F200001D90320BDE66148006800F480700028F4
:101F3000F2D000BFA068012808D15A48903000684C
:101F400040F001005749C1F8900021E0A068052841
:101F50000FD154489030006840F004005149C1F856
:101F600090000846D0F8900040F00100C1F89000C1
:101F70000EE04C489030006820F001004949C1F85B
:101F800090000846D0F8900020F00400C1F89000BE
:101F900000BFA068A8B1FFF793F9054609E0FFF775
:101FA0008FF9401B41F28831884202D9032078E63C
:101FB00025E03C489030006800F002000028EED098
:101FC00013E0FFF77DF9054608E0FFF779F9401BBC
:101FD00041F28831884201D9032062E631489030CD
:101FE000006800F002000028EFD1B8F1010F05D120
:101FF0002C48806D20F080502A49886500BF2078E9
:1020000000F02000202836D1A069D0B125489830B2
:10201000006840F001002349C1F89800FFF750F92B
:10202000054606E0FFF74CF9401B022801D90320C2
:1020300037E61C489830006800F002000028F1D014
:1020400019E018489830006820F001001549C1F8DF
:102050009800FFF735F9054606E0FFF731F9401B18
:10206000022801D903201CE60E489830006800F0D1
:1020700002000028F1D1E069002860D0094880689A
:1020800000F00C000C287AD0E069022858D10548ED
:10209000006820F0807003490860FFF711F90546D9
:1020A0000DE0000000100240080000200070004019
:1020B000FFF706F9401B022801D90320F1E54A4841
:1020C000006800F000700028F2D1D4E90810401E2A
:1020D00041EA0011A06A41EA0021208E0122C2EBF0
:1020E000500041EA40513420005DC2EB500041EA0B
:1020F00040612C20005D41EAC0603B49C9683B4A11
:10210000114008433849C8600846006840F08070B4
:1021100008600846C06840F08070C860FFF7D0F8DB
:10212000054606E0FFF7CCF8401B022801D9032042
:10213000B7E52D48006800F000700028F2D051E0AB
:102140002948006820F0807027490860FFF7B8F838
:10215000054606E0FFF7B4F8401B022801D903202A
:102160009FE52148006800F000700028F2D11E4869
:10217000C0681F4908401C49C86033E0FFE7E069B8
:10218000012800D18DE51848C66806F00301206AD1
:10219000814225D106F0F001606A401EB1EB001FBC
:1021A0001ED106F4FE41A06AB1EB002F18D106F053
:1021B00078412C20005DB1EBC06F11D106F4C00155
:1021C000208E0122C2EB5000B1EB405F08D106F037
:1021D000C0613420005DC2EB5000B1EB406F01D014
:1021E00001205EE500205CE5001002400C809F01AC
:1021F000FCFFEEFE042808D14FF0E021096941F010
:1022000004014FF0E022116107E04FF0E02109697D
:1022100021F004014FF0E0221161704770B50446CF
:102220002546681EB0F1807F01D301200FE0681EB3
:102230004FF0E02148610F214FF0FF3001F0C0FA6C
:1022400000204FF0E021886107200861002070BD68
:10225000014600BF91F88400012801D10220704797
:10226000012081F8840000BF2420C1F8880008689C
:1022700002680868006820F001000B68186022F00E
:10228000005200204866086802602020C1F88800DB
:1022900000BF002081F8840000BF00BFDFE7704767
:1022A000704770B504460D4600BF94F884000128BD
:1022B00001D1022070BD012084F8840000BF2420D9
:1022C000C4F88800206806682068006820F00100D3
:1022D000216808602068806820F0606028432168D9
:1022E0008860204600F044FE206806602020C4F884
:1022F000880000BF002084F8840000BF00BFD9E739
:1023000070B504460D4600BF94F88400012801D141
:10231000022070BD012084F8840000BF2420C4F88E
:102320008800206806682068006820F001002168A5
:1023300008602068806820F0604028432168886039
:10234000204600F015FE206806602020C4F88800B2
:1023500000BF002084F8840000BF00BFD9E77047A9
:10236000704770472DE9F04704462068C56920682A
:1023700006682068876840F60F0005EA0009B9F191
:10238000000F0FD105F0200060B106F0200010B959
:1023900007F0805030B1606F10B12046616F884700
:1023A000BDE8F087B9F1000F7ED0DF48384018B99A
:1023B000DE4830400028F7D005F0010058B106F49F
:1023C000807040B1012021680862D4F8900040F08C
:1023D0000100C4F8900005F0020058B107F00100B8
:1023E00040B1022021680862D4F8900040F0040057
:1023F000C4F8900005F0040058B107F0010040B1A6
:10240000042021680862D4F8900040F00200C4F86B
:10241000900005F0080070B106F0200010B9C24825
:10242000384040B1082021680862D4F8900040F09C
:102430000800C4F8900005F4006060B106F0806008
:1024400048B14FF4006021680862D4F8900040F071
:102450002000C4F89000D4F89000002852D005F075
:10246000200050B106F0200010B907F0805020B1D4
:10247000606F10B12046616F8847D4F890A0206843
:10248000806800F04000402802D00AF0280070B3B5
:10249000204600F0F5FE2068806800F040004028EB
:1024A00026D100BF00BF00E02DE02168083151E8CF
:1024B000001F21F040002168083141E80002002A95
:1024C000F1D100BFD4F8800068B19948D4F88010E9
:1024D0008863D4F88000FEF774FC98B1D4F88000CB
:1024E000816B88470EE02046FFF73BFF0AE003E0E0
:1024F0002046FFF736FF05E02046FFF732FF0020B9
:10250000C4F890004CE7E06E012865D105F010009A
:10251000002861D006F010000028FAD010202168B1
:1025200008622068806800F0400040287AD1D4F822
:102530008000006840681FFA80F8B8F1000F5CD096
:10254000B4F85C00404558DDA4F85E80D4F8800003
:102550000068006800F02000E8BB00BF00BF2168F1
:1025600051E8001F21F48070226842E80001002930
:10257000F5D100BF00BF00BF2168083151E8001F3E
:1025800021F001002168083141E80002002AF3D15E
:1025900000BF00BF00BF2168083151E8001F21F0D3
:1025A00040002168083141E80002002AF3D100BF51
:1025B0002020C4F88C000020E06600BF00BF216826
:1025C00051E8001F21F01000226842E800010029B4
:1025D000F5D100BF01E004E068E0D4F88000FEF728
:1025E000B5FB02202067B4F85C00B4F85E20801AC6
:1025F00081B22046FFF753FE12E0B4F85C0040457C
:102600000ED1D4F880000068006800F02000202877
:1026100006D102202067B4F85C102046FFF73FFE89
:10262000BEE6FFE734F85C0F6188401A1FFA80F8B5
:1026300060885C3CC8B3B8F1000F36D000BF00BF63
:10264000216851E8001F21F49070226842E80001DF
:102650000029F5D100BF00BF00BF2168083151E853
:10266000001F314AD24301EA02002168083141E8E3
:102670000002002AF1D100BF2020C4F88C00002005
:10268000E066606700BF00BF216851E8001F21F0CD
:102690001000226842E800010029F5D100BF0220A5
:1026A000206741462046FFF7FAFD79E605F48010E1
:1026B00050B107F4800038B14FF4801021680862EF
:1026C0002046FFF74DFE6BE605F0800058B106F09E
:1026D000800010B907F4000028B1A06F10B12046A7
:1026E000A16F88475CE605F0400030B106F040007D
:1026F00018B1204600F0FAFD52E605F4000030B1B2
:1027000006F0804018B12046FFF729FE48E605F0A4
:10271000807030B106F0004018B12046FFF7C0FDD0
:102720003EE600BF3CE6000001000010200100046E
:10273000AB31000810B504460CB9012010BDA069EA
:1027400000B100E000BFD4F8880028B9002084F868
:102750008400204600F02AF82420C4F8880020686D
:10276000006820F0010021680860A06A10B12046CE
:1027700000F02AFC204600F0F1FD012800D1DDE741
:102780002068406820F49040216848602068806894
:1027900020F02A00216888602068006840F001006D
:1027A00021680860204600F08BFCC7E710B598B0A0
:1027B0000446142113A8FDF775FD442102A8FDF776
:1027C00071FD6B492068884258D101200290002099
:1027D000039002A8FEF720FF08B1FDF716FE00BF28
:1027E0006448006E40F48040624908660846006E06
:1027F00000F48040019000BF00BF00BF0846C06CDD
:1028000040F00100C8640846C06C00F0010001906F
:1028100000BF00BF4FF4C06013900220149000204E
:102820001590032016900720179013A94FF09040A1
:10283000FEF75AFC504851490860192048601021A1
:102840004E4881600021C160802101610021416109
:102850008161C1610162FEF77DFB08B1FDF7D5FD25
:1028600000BF4648E067846200BF00221146252071
:10287000FEF7EAFD2520FEF7D3FD76E0404920680B
:10288000884272D1022002900020049002A8FEF734
:10289000C3FE08B1FDF7B9FD00BF3648806D40F4B6
:1028A0000030344988650846806D00F4003001909E
:1028B00000BF00BF00BF0846C06C40F00200C86403
:1028C0000846C06C00F00200019000BF00BF182055
:1028D00013900220149000201590032016900720DA
:1028E000179013A92748FEF7FFFB234828382649ED
:1028F00008601A204860002123488160C16080215F
:102900000161002141618161C1610162FEF722FB29
:1029100008B1FDF77AFD00BF1B48C4F8800084624F
:1029200000BF15481438194908601B204860102161
:10293000164881600021C160802101610021416150
:102940008161C1610162FEF705FB08B1FDF75DFD24
:1029500000BF0E48E067846200BF002211462620B7
:10296000FEF772FD2620FEF75BFD18B010BD0000DB
:10297000003801400010024030000240800A002070
:102980000044004000040048E00A0020400B002002
:1029900070B504460E461546D4F8880020283FD16D
:1029A00006B10DB9012070BD44F8506FA580E580D7
:1029B000002020642120A063E06A503CE0B1194867
:1029C000E16FC8621848E16F08631848E16F486317
:1029D0000020E16F8863236803F128022B46216DF4
:1029E000E06FFEF71FFB38B11020C4F890002020E4
:1029F000C4F888000120D6E740202168086200BFA3
:102A000000BF2168083151E8001F41F080002168B3
:102A1000083141E80002002AF3D100BF0020C2E7DC
:102A20000220C0E71D32000873320008BF310008E1
:102A30007047704700BFFEE7024602F1600000EBFE
:102A40008103186800F0F840704701468868C0F3B9
:102A5000C00070470146886800F0010070470146D9
:102A6000886800F00100704701468868C0F3007074
:102A7000704701468868C0F3800070470146886847
:102A8000C0F38000704770B500F11404C1F34065D5
:102A900004EB85031C68C1F304560725B540AC431D
:102AA000C1F3045502FA05F52C431C6070BD826821
:102AB00022F0E0720A438260704710B500F16004B2
:102AC00004EB81031C6824F0004414431C6010BD17
:102AD000426922F000420A434261704700B58BB060
:102AE0000020089009900A9020216846FDF7DAFB43
:102AF0004FF0A040204908604FF44030486010215A
:102B00001D4881600021C160016141610421816132
:102B100000210177012141770162002180F8241012
:102B2000C1620163012180F838100021C16380F87F
:102B30004010FDF777FF08B1FDF767FC0020089013
:102B400008A90D48FDF764FC08B1FDF75EFC0B48D1
:102B5000009006200190002002907F200390042026
:102B600004900020059069460348FDF7D7FC08B1A2
:102B7000FDF74BFC0BB000BD7C0800200040C03AC4
:102B800008B500BF1D48806C40F004001B498864F4
:102B90000846806C00F00400009000BF00BF00BF3A
:102BA0000846806C40F0010088640846806C00F0A4
:102BB0000100009000BF00BF002211460B20FEF76D
:102BC00043FC0B20FEF72CFC002211460C20FEF7E4
:102BD0003BFC0C20FEF724FC002211460D20FEF7E2
:102BE00033FC0D20FEF71CFC002211460E20FEF7E0
:102BF0002BFC0E20FEF714FC08BD00000010024064
:102C000000B587B0142102A8FDF74CFB00BF534864
:102C1000C06C40F004005149C8640846C06C00F024
:102C20000400019000BF00BF00BF0846C06C40F028
:102C30002000C8640846C06C00F02000019000BF6E
:102C400000BF00BF0846C06C40F00100C8640846E1
:102C5000C06C00F00100019000BF00BF00BF08463B
:102C6000C06C40F00200C8640846C06C00F002006E
:102C7000019000BF00BF00BF0846C06C40F00800D4
:102C8000C8640846C06C00F00800019000BF00BF97
:102C900000224FF6FF713248FEF70CFB002248F28B
:102CA000FF114FF09040FEF705FB00224FF2E76165
:102CB0002C48FEF7FFFA002204212B48FEF7FAFA0F
:102CC0004FF4604002900120039000200490059092
:102CD00002A92348FEF708FA41F6FF70029001208E
:102CE0000390002004900320059002A91C48FEF7E1
:102CF000FBF948F2FF10029001200390002004909D
:102D00000320059002A94FF09040FEF7EDF94FF235
:102D100007400290012003900020049003200590BA
:102D200002A91048FEF7E0F9042002900120039068
:102D3000002004900320059002A90B48FEF7D4F967
:102D40004FF4387002900120039000200490059009
:102D500002A90448FEF7C8F907B000BD0010024000
:102D60000008004800040048000C004810B508485E
:102D7000084908600520486040F6FF710548C160B9
:102D80008160FEF7A3FA08B1FDF73FFB10BD00001C
:102D9000003000404809002010B517481749086066
:102DA00017484860002115488160C16001610C210D
:102DB000416100218161C1610162416200200F49CE
:102DC00088620846FFF7B6FC08B1FDF71EFB00213C
:102DD0000A48FFF795FA08B1FDF717FB00210748ED
:102DE000FFF75FFA08B1FDF710FB0448FFF730FA70
:102DF00008B1FDF70AFB10BD00380140580900205A
:102E000080841E0010B51848184908604FF4E1305E
:102E10004860002115488160C16001610C21416159
:102E200000218161C1610162416200200F49886215
:102E30000846FFF77FFC08B1FDF7E7FA00210B48D1
:102E4000FFF75EFA08B1FDF7E0FA00210748FFF747
:102E500028FA08B1FDF7D9FA0448FFF7F9F908B1E3
:102E6000FDF7D3FA10BD000000440040EC0900203B
:102E700000BFFEE700BFFEE77047000070B5164DCB
:102E8000ED6805F00304144DED68C5F303156B1CE4
:102E9000022C0CD0032C09D1104DB5FBF3F50E4ECE
:102EA000F668C6F3062605FB06F10AE000BF0C4DE6
:102EB000B5FBF3F5084EF668C6F3062605FB06F1EA
:102EC00000BF00BF044DED68C5F341656D1C6A008D
:102ED000B1FBF2F070BD00000010024040787D01AF
:102EE0000024F400704710B5FEF730FA10BD00B5AD
:102EF00093B0382105A8FDF7D5F914216846FDF7F0
:102F0000D1F90020FEF7F2FA092005904FF4803045
:102F1000069001200A9002200C9003210D910521BA
:102F20000E9144210F91022110911191129105A847
:102F3000FEF7B2FE08B1FDF768FA0F2000900320FB
:102F40000190002002900390049004216846FEF74F
:102F50001BFD08B1FDF759FA13B000BD0348006826
:102F600040F47000014908607047000088ED00E0FF
:102F700070B5456E2DB90125A0F86A50A0F86850CB
:102F80001CE0082308240568AD68C5F342610568A4
:102F9000AD686A0F0A4DAD5C15FB04F5094EB65CD1
:102FA00095FBF6F5A0F86A50054D6D5C15FB03F531
:102FB000044E765C95FBF6F5A0F8685070BD0000F5
:102FC000483C0008503C000890F8281001F0080127
:102FD000082907D10168496821F40041826B114337
:102FE0000268516090F8281001F0010139B10168C0
:102FF000496821F40031C26A11430268516090F8B7
:10300000281001F00201022907D10168496821F462
:103010008031026B11430268516090F8281001F072
:103020000401042907D10168496821F48021426B19
:1030300011430268516090F8281001F01001102926
:1030400007D10168896821F48051C26B114302687D
:10305000916090F8281001F02001202907D1016823
:10306000896821F40051026C11430268916090F864
:10307000281001F04001402913D10168496821F46A
:103080008011426C114302685160416CB1F5801FA0
:1030900007D10168496821F4C001826C11430268BC
:1030A000516090F8281001F08001802907D1016853
:1030B000496821F40021C26C1143026851607047D5
:1030C00038B504460020C4F89000FEF7F9F805462C
:1030D0002068006800F00800082821D16FF07E40C9
:1030E0002B4600224FF400110090204600F0F8FA21
:1030F000B0B100BF00BF216851E8001F21F080007F
:10310000226842E800010029F5D100BF2020C4F860
:10311000880000BF002084F8840000BF032038BD71
:103120002068006800F00400042830D16FF07E4071
:103130002B4600224FF480010090204600F0D0FA88
:1031400028B300BF00BF216851E8001F21F4907030
:10315000226842E800010029F5D100BF00BF00BF8E
:103160002168083151E8001F21F001002168083171
:1031700041E80002002AF3D100BF2020C4F88C00EF
:1031800000BF002084F8840000BF0320C7E7202090
:10319000C4F88800C4F88C000020E066206700BFF7
:1031A00084F8840000BF00BFB9E770B50446A56A83
:1031B0000020A5F85E002846FFF7D3F870BD2DE982
:1031C000F0410546AC6AD4F88860D4F88C70206869
:1031D000806800F08000802807D1212E05D10020D2
:1031E000A4F85600204600F099F82068806800F0A6
:1031F0004000402807D1222F05D10020A4F85E000E
:10320000204600F03DF8D4F8900040F01000C4F8DB
:1032100090002046FFF7A5F8BDE8F08170B505469F
:10322000AC6A2868006800F02000F0B90020A4F81B
:10323000560000BF00BF2168083151E8001F21F08F
:1032400080002168083141E80002002AF3D100BF64
:1032500000BF00BF216851E8001F41F04000226814
:1032600042E800010029F5D102E02046FFF7E0FB2B
:1032700070BD70B50446A56A2846FFF7DAFB70BD3D
:1032800000BF00BF026852E8002F22F4907103686B
:1032900043E80012002AF5D100BF00BF00BF02685A
:1032A000083252E8002F104B02EA0301026808328C
:1032B00042E80013002BF2D100BFC16E01290CD1EE
:1032C00000BF00BF026852E8002F22F0100103681F
:1032D00043E80012002AF5D100BF2021C0F88C106D
:1032E0000021C16641677047FEFFFFEF10B504463D
:1032F00000BF00BF216851E8001F21F04000226894
:1033000042E800010029F5D100BF2020C4F8880060
:103310000020A0672046FFF78BFB10BD00BF00BF59
:10332000026852E8002F22F0C001036843E800124F
:10333000002AF5D100BF00BF00BF0268083252E882
:10334000002F22F400010268083242E80013002B2B
:10335000F3D100BF2021C0F8881070472DE9FE4F3F
:10336000044600200290D4492068884200D100E041
:1033700000BF2169A068084361690843E16940EA28
:10338000010820680068CD49084040EA080021682B
:1033900008602068406820F44050E16808432168D4
:1033A0004860D4F81880C4492068884202D0206A56
:1033B00040EA080820688068C149084040EA0800DF
:1033C000216888602068C06A20F00F00616A0843A5
:1033D0002168C86200BFBB492068884216D1BA483C
:1033E000006800F0030030B1012808D0022804D0A2
:1033F000032808D105E0012507E0022505E00425A2
:1034000003E0082501E0102500BF6FE0AF49206808
:10341000884216D1AC48006800F00C0030B1042896
:1034200008D0082804D00C2808D105E0002507E0C2
:10343000022505E0042503E0082501E0102500BF72
:1034400054E0A3492068884216D19F48006800F0E4
:10345000300030B1102808D0202804D0302808D1FE
:1034600005E0002507E0022505E0042503E0082526
:1034700001E0102500BF39E096492068884216D146
:103480009148006800F0C00030B1402808D0802882
:1034900004D0C02808D105E0002507E0022505E09A
:1034A000042503E0082501E0102500BF1EE0824945
:1034B0002068884219D18448006800F4406048B10F
:1034C000B0F5806F0AD0B0F5006F05D0B0F5406F51
:1034D00008D105E0002507E0022505E0042503E00A
:1034E000082501E0102500BF00E0102500BF72494B
:1034F0002068884259D135B1022D08D0042D08D05A
:10350000082D0DD109E0FEF757FB06460CE0724E80
:103510000AE0FEF775FB064606E04FF4004603E0BE
:1035200000260120029000BF00BF002E10D06B4982
:10353000606A31F81000B6FBF0F9606800EB4000FB
:10354000484503D860680003484502D20120029034
:10355000A6E06249606A31F810C062460023304636
:103560001946FCF755FE4FF4807C0022A0FB0C3B73
:1035700001FB0CB100FB02116068400818185141B2
:10358000CDE90001D4F804C062460023FCF740FEF8
:103590000746B7F5407F05D3B7F5801F02D22068F4
:1035A000C7607DE0012002907AE0E069B0F5004F4D
:1035B0003FD1092D17D2DFE805F005090D160F16CA
:1035C00016161300FEF7F8FA064610E0FEF706FBA3
:1035D00006460CE0404E0AE0FEF712FB064606E007
:1035E0004FF4004603E000260120029000BF00BF18
:1035F00086B33A49606A31F81000B6FBF0F040003B
:10360000616800EB5100B0FBF1F7102F0ED3B7F556
:10361000803F0BD24FF6F07007EA000AC7F3420072
:103620004AEA000A2068C0F80CA039E001200290A4
:1036300036E0092D18D2DFE805F005090E1710173E
:1036400017171400FEF7B8FA064611E0FEF7C6FA9F
:1036500006460DE024E0204E0AE0FEF7D1FA0646C9
:1036600006E04FF4004603E000260120029000BF70
:1036700000BFAEB11949606A31F81000B6FBF0F036
:10368000616800EB5100B0FBF1F7102F06D3B7F5DE
:10369000803F03D2B8B22168C86001E001200290E7
:1036A0000120A4F86A00A4F8680000206067A06701
:1036B0000298BDE8FE8F000000800040F369FFCF54
:1036C000FFF4FF1100380140881002400044004020
:1036D00000480040004C00400024F400303C00084A
:1036E0002DE9F04104460D4617469846069E41E0F6
:1036F000701C00283ED0FDF7E3FDA0EB0800B042AF
:1037000000D816B90320BDE8F0812068006800F0F9
:10371000040070B3802D2DD0402D2BD02068C069BF
:10372000C0F3C00078B10820216808622046FFF786
:10373000A7FD0820C4F8900000BF002084F8840092
:1037400000BF0120DFE72068C069C0F3C02080B15E
:103750004FF40060216808622046FFF791FD2020A9
:10376000C4F8900000BF002084F8840000BF03204C
:10377000C9E7FFE72068C0692840A84201D10120BD
:1037800000E00020B842B3D00020BCE710B50248EA
:10379000FEF7E8FD10BD00005809002010B50248F2
:1037A000FEF7E0FD10BD0000EC09002000BFFEE7C1
:1037B00002480068C0F30220704700000CED00E0F2
:1037C00010B5002804DB0A07130E054A135406E05F
:1037D0000A07140E034A00F00F031B1FD45410BD38
:1037E00000E400E018ED00E002E008C8121F08C184
:1037F000002AFAD170477047002001E001C1121F72
:10380000002AFBD17047000010B5014600220020BD
:1038100000BF03E0094B1B5C1A44401C6428F9D329
:103820006423B2FBF3F300EE903AB8EE600AFCEECC
:10383000C00A10EE903A024C635410BD14000020F0
:103840007800002010B50420FEF7D4FCAA2001491E
:10385000086010BD000000200146114A12684A436A
:103860004FF0E0235A6100229A611A46126942F031
:1038700001021A6100BF4FF0E022106900F001025E
:103880001AB100F48032002AF5D04FF0E02212691C
:1038900022F001024FF0E0231A6100229A61704782
:1038A0000000002010B50446102C05DA0122910317
:1038B0000548FDF7FFFC06E0202C04DA0122D103C5
:1038C0000148FDF7F7FC10BD00080048AA20064992
:1038D00081F80004552081F80104032081F80204D6
:1038E000992081F80304704778040020FDF73AFD21
:1038F000FFF7FDFAFFF784F9FFF742F9FFF782FAC5
:10390000FFF74AFAFFF7EAF8FFF730FAFFF79AFFF6
:1039100004E00348FDF712FD00F004F8F9E70000A9
:103920004809002070B500240025002600BF1EE0D5
:10393000E0B2012100F054F8002510E0E8B200F0F8
:103940001BF80A20FFF788FF05EB441086B2F0B29F
:10395000FFF75AFFE8B2FFF7A5FF681C85B2202DDC
:10396000ECDBE0B2002100F03BF8601C84B2202CBC
:10397000DEDB00F047F870BD10B50446202C18DAE5
:1039800004F0010220211448FDF794FCC4F3400226
:1039900040211148FDF78EFCC4F3800280210E48BF
:1039A000FDF788FCC4F3C0024FF400710A48FDF72C
:1039B00081FC102C06DA00224FF480410748FDF705
:1039C00079FC07E0202C05DA00224FF4004103487F
:1039D000FDF770FC10BD000000040048000800481E
:1039E00070B504460D46402C09D2054A02EBC402CC
:1039F0009188034A52F834002A46FDF75BFC70BDFB
:103A0000303A000810B5FFF761FF4FF480620549B6
:103A10000548FCF72EFC40F2044203490348FEF738
:103A2000B7FF10BD7800002078040020580900205E
:103A300000080048010000000008004802000000E3
:103A400000080048040000000008004808000000CA
:103A500000000048010000000000004802000000D3
:103A60000000004804000000000C004804000000B2
:103A7000000800480010000000080048000800008E
:103A8000000800480004000000000048008000001A
:103A9000000000480800000000000048100000007E
:103AA0000000004820000000000000484000000026
:103AB00000000048800000000008004810000000DE
:103AC0000008004820000000000400480100000039
:103AD0000004004802000000000400480400000048
:103AE000000400480004000000040048001000002A
:103AF00000040048002000000004004800400000CE
:103B00000004004800800000000800484000000059
:103B10000008004880000000000800480001000084
:103B200000080048000200000000004800010000FA
:103B30000000000000000000000000000000000085
:103B40000000000000000000000000000000000075
:103B50000000000000000000000000000000000065
:103B60000000000000000000000000000000000055
:103B70000000000000000000000000000000000045
:103B80000000000000000000000000000000000035
:103B90000000000000000000000000000000000025
:103BA0000000000000000000000000000000000015
:103BB0000000000000000000000000000000000005
:103BC00000000000000000000000000000000000F5
:103BD00000000000000000000000000000000000E5
:103BE00000000000000000000000000000000000D5
:103BF00000000000000000000000000000000000C5
:103C000000000000000000000000000000000000B4
:103C100000000000000000000000000000000000A4
:103C20000000000000000000000000000000000094
:103C3000010002000400060008000A000C00100049
:103C40002000400080000001010101030701000085
:103C50000804020408010101000000000000000047
:103C60000102030406070809000000000102030422
:103C7000903C00080000002014000000E837000815
:103C8000A43C0008140000208C0F0000F837000846
:103C90000000000000000000100000000100000013
:043CA0000024F40008
:04000005080001D915
:00000001FF
